{
  "contractName": "DappTokenSale",
  "abi": [
    {
      "constant": true,
      "inputs": [],
      "name": "tokensold",
      "outputs": [
        {
          "name": "",
          "type": "uint256"
        }
      ],
      "payable": false,
      "stateMutability": "view",
      "type": "function"
    },
    {
      "constant": true,
      "inputs": [],
      "name": "tokencontract",
      "outputs": [
        {
          "name": "",
          "type": "address"
        }
      ],
      "payable": false,
      "stateMutability": "view",
      "type": "function"
    },
    {
      "constant": true,
      "inputs": [],
      "name": "tokenprice",
      "outputs": [
        {
          "name": "",
          "type": "uint256"
        }
      ],
      "payable": false,
      "stateMutability": "view",
      "type": "function"
    },
    {
      "inputs": [
        {
          "name": "_tokencontract",
          "type": "address"
        },
        {
          "name": "_tokenprice",
          "type": "uint256"
        }
      ],
      "payable": false,
      "stateMutability": "nonpayable",
      "type": "constructor"
    },
    {
      "anonymous": false,
      "inputs": [
        {
          "indexed": false,
          "name": "_buyer",
          "type": "address"
        },
        {
          "indexed": false,
          "name": "_amount",
          "type": "uint256"
        }
      ],
      "name": "sell",
      "type": "event"
    },
    {
      "constant": false,
      "inputs": [
        {
          "name": "_numberoftokens",
          "type": "uint256"
        }
      ],
      "name": "buytokens",
      "outputs": [],
      "payable": true,
      "stateMutability": "payable",
      "type": "function"
    }
  ],
  "bytecode": "0x608060405234801561001057600080fd5b506040516040806105408339810180604052810190808051906020019092919080519060200190929190505050336000806101000a81548173ffffffffffffffffffffffffffffffffffffffff021916908373ffffffffffffffffffffffffffffffffffffffff16021790555081600160006101000a81548173ffffffffffffffffffffffffffffffffffffffff021916908373ffffffffffffffffffffffffffffffffffffffff16021790555080600281905550505061046a806100d66000396000f300608060405260043610610062576000357c0100000000000000000000000000000000000000000000000000000000900463ffffffff16806338c40595146100675780635ed1ca851461009257806381cf923a146100b2578063d0bd4c7314610109575b600080fd5b34801561007357600080fd5b5061007c610134565b6040518082815260200191505060405180910390f35b6100b06004803603810190808035906020019092919050505061013a565b005b3480156100be57600080fd5b506100c76103e2565b604051808273ffffffffffffffffffffffffffffffffffffffff1673ffffffffffffffffffffffffffffffffffffffff16815260200191505060405180910390f35b34801561011557600080fd5b5061011e610408565b6040518082815260200191505060405180910390f35b60035481565b6101468160025461040e565b3414151561015357600080fd5b80600160009054906101000a900473ffffffffffffffffffffffffffffffffffffffff1673ffffffffffffffffffffffffffffffffffffffff16633d64125b306040518263ffffffff167c0100000000000000000000000000000000000000000000000000000000028152600401808273ffffffffffffffffffffffffffffffffffffffff1673ffffffffffffffffffffffffffffffffffffffff168152602001915050602060405180830381600087803b15801561021157600080fd5b505af1158015610225573d6000803e3d6000fd5b505050506040513d602081101561023b57600080fd5b81019080805190602001909291905050501015151561025957600080fd5b600160009054906101000a900473ffffffffffffffffffffffffffffffffffffffff1673ffffffffffffffffffffffffffffffffffffffff1663a9059cbb33836040518363ffffffff167c0100000000000000000000000000000000000000000000000000000000028152600401808373ffffffffffffffffffffffffffffffffffffffff1673ffffffffffffffffffffffffffffffffffffffff16815260200182815260200192505050602060405180830381600087803b15801561031e57600080fd5b505af1158015610332573d6000803e3d6000fd5b505050506040513d602081101561034857600080fd5b8101908080519060200190929190505050151561036457600080fd5b806003600082825401925050819055507f6c197ff5fb3c0793d2ced16096dc40420539c99ae6f83b0c62bea63dab16ac6b3382604051808373ffffffffffffffffffffffffffffffffffffffff1673ffffffffffffffffffffffffffffffffffffffff1681526020018281526020019250505060405180910390a150565b600160009054906101000a900473ffffffffffffffffffffffffffffffffffffffff1681565b60025481565b60008082148061042d5750828283850292508281151561042a57fe5b04145b151561043857600080fd5b929150505600a165627a7a7230582072269c2996c1e4ec37481e6f427ff35632edf48c15a03007bf3c5b85bc9077660029",
  "source": "pragma solidity ^0.4.2;\r\nimport \"./DappToken.sol\";\r\ncontract DappTokenSale {\r\n    address admin;\r\n    DappToken public tokencontract;\r\n    uint256 public tokenprice;\r\n    uint256 public tokensold;\r\n    event sell(\r\n        address _buyer,\r\n        uint256 _amount\r\n    );\r\n    function DappTokenSale(DappToken _tokencontract,uint256 _tokenprice) public \r\n    {\r\n        admin=msg.sender;\r\n        tokencontract=_tokencontract;\r\n        tokenprice=_tokenprice;\r\n    }\r\n    //multiply function\r\n      function multiply(uint x, uint y) internal pure returns (uint z) {\r\n        require(y == 0 || (z = x * y) / y == x);\r\n    }\r\n    function buytokens(uint256 _numberoftokens) public payable{\r\n        //require  that value is equal to tokens\r\n        require(msg.value==multiply(_numberoftokens,tokenprice));\r\n        //require that the contract has enough tokens\r\n        require(tokencontract.balanceof(this) >= _numberoftokens);\r\n        //require that a transfer is successful\r\n        require(tokencontract.transfer(msg.sender,_numberoftokens));\r\n        tokensold +=_numberoftokens;\r\n        sell(msg.sender,_numberoftokens);\r\n\r\n\r\n    }\r\n\r\n}",
  "sourcePath": "C:\\Users\\ajay.singh\\Desktop\\token_sale\\contracts\\DappTokenSale.sol",
  "compiler": {
    "name": "solc",
    "version": "0.4.24+commit.e67f0147.Emscripten.clang"
  },
  "schemaVersion": "2.0.1",
  "updatedAt": "2018-08-29T15:13:39.283Z"
}